:020000040000fa
:080000000002040000000000f2
:020000040000fa
:100008009a0200009a0200009a0200009a02000078
:100018009a0200009a0200009a0200009a02000068
:100028009a0200009a0200009a0200009a02000058
:100038009a0200009a0200009a0200009a02000048
:100048009a0200009a0200009a0200009a02000038
:100058009a0200009a0200009a0200009a02000028
:100068009a0200009a0200009a0200003e06000070
:100078009a0200009a0200009a0200009a02000008
:100088009a0200009a0200009a0200009a020000f8
:100098001e0600009a0200009a0200009a02000060
:1000a8009a0200009a0200009a0200009a020000d8
:1000b8009a0200009a0200009a0200009a020000c8
:1000c8009a0200009a0200009a0200009a020000b8
:1000d8009a0200009a0200009a0200009a020000a8
:1000e8009a0200009a0200009a0200009a02000098
:1000f8009a0200009a0200009a0200009a02000088
:100108009a0200009a0200009a0200009a02000077
:100118009a0200009a0200009a0200009a02000067
:100128009a0200009a0200009a0200009a02000057
:100138009a0200009a0200009a0200009a02000047
:100148009a0200009a0200009a0200009a02000037
:100158009a0200009a0200009a0200009a02000027
:100168009a0200009a0200009a0200009a02000017
:100178009a0200009a0200009a0200009a02000007
:100188009a0200009a0200009a0200009a020000f7
:100198009a0200009a0200009a0200009a020000e7
:1001a8009a0200009a0200009a0200009a020000d7
:1001b8009a0200009a0200009a0200009a020000c7
:1001c8009a0200009a0200009a0200009a020000b7
:1001d8009a0200009a0200009a0200009a020000a7
:1001e8009a0200009a0200009a0200009a02000097
:0801f8009a0200009a020000c7
:020000040000fa
:100208009a0200009a0200009a0200009a02000076
:100218009a0200009a0200009a0200009a02000066
:100228009a0200009a0200009a0200009a02000056
:100238009a0200009a0200009a0200009a02000046
:100248009a0200009a0200009a0200009a02000036
:100258009a0200009a0200009a0200009a02000026
:100268009a0200009a0200009a0200003e0600006e
:100278009a0200009a0200009a0200009a02000006
:100288009a0200009a0200009a0200009a020000f6
:100298001e0600009a0200009a0200009a0200005e
:1002a8009a0200009a0200009a0200009a020000d6
:1002b8009a0200009a0200009a0200009a020000c6
:1002c8009a0200009a0200009a0200009a020000b6
:1002d8009a0200009a0200009a0200009a020000a6
:1002e8009a0200009a0200009a0200009a02000096
:1002f8009a0200009a0200009a0200009a02000086
:100308009a0200009a0200009a0200009a02000075
:100318009a0200009a0200009a0200009a02000065
:100328009a0200009a0200009a0200009a02000055
:100338009a0200009a0200009a0200009a02000045
:100348009a0200009a0200009a0200009a02000035
:100358009a0200009a0200009a0200009a02000025
:100368009a0200009a0200009a0200009a02000015
:100378009a0200009a0200009a0200009a02000005
:100388009a0200009a0200009a0200009a020000f5
:100398009a0200009a0200009a0200009a020000e5
:1003a8009a0200009a0200009a0200009a020000d5
:1003b8009a0200009a0200009a0200009a020000c5
:1003c8009a0200009a0200009a0200009a020000b5
:1003d8009a0200009a0200009a0200009a020000a5
:1003e8009a0200009a0200009a0200009a02000095
:0803f8009a0200009a020000c5
:020000040000fa
:100400008f8020000e7f22000e0188000000000077
:10041000000020000000e000020032000001200087
:10042000200288000c00070020b2200001002000fc
:1004300011000700000020000000e0000200320070
:100440000000020000000000de02020000000000c8
:100450000040da000000fe004440a90060022000d5
:100460000000e0000300320000002000a00188002e
:100470004440a80000000600910188008000780038
:100480000000eb0015003700e280400032a0b4000d
:100490009101ba00e280400032a0b4009102ba009b
:1004a000e280400032a0b4000002eb00472bde00e7
:1004b000f507b200602ce10004003a000059eb009f
:1004c0008301e900fdff3e00040037006128e100e0
:1004d000010032000082eb00040007001101ba00a5
:1004e0000200e000e8ff3a00000006003159ba00bf
:1004f0008301e9000c0032002159ba008301e900b0
:10050000080032000400e00003003a00e2804000ee
:1005100032a0b400f5ff370011d9ba008301e90019
:10052000faff3a008100e800e180400032a0b40008
:10053000000006000040da000000fe00b042780033
:1005400031c2520002003a00e0cf5200fbff3a00f5
:100550000400fb000000060000027800b1427800b1
:10056000055a7800e0cf5200fcff3a000000060078
:020000040000fa
:10057000456e0000746500007200000053650000c5
:10058000742000004d6f0000646500000042000010
:1005900061640000004700006f6f0000640000000d
:1005a000496e0000766100006c6900006400000084
:0c05b000566100006c690000640000004f
:020000040000fa
:1005bc003000fa000002eb00040f78000002eb00a0
:1005cc00140798000002eb00240798000002eb00cf
:1005dc00340798000002eb00440798000002eb007f
:1005ec00540798000002eb007407980014002000d8
:1005fc00640798007102470004000900005aeb00e0
:10060c0014c3b3001457980024c3b30024579800a4
:10061c0034c3b3003457980044c3b3004457980014
:10062c007602470001000900001aeb00005aeb00ab
:10063c007b02470004000900005aeb000e02780010
:10064c000402b00001000900001aeb00005aeb0094
:10065c000e0278005402b00004000900005aeb00ae
:10066c000e027800a402b00001000900001aeb0091
:10067c00005aeb001e61a8001e81a9001ea1a90052
:10068c000002eb00d4088800241c2000e408880039
:10069c000002eb00a40888000002eb00c4088800ec
:1006ac008780a9009780a8001fe1a90068030700b4
:1006bc007d0107000100370000000000144080009d
:1006cc00cfa2de003600200007002000860f52006b
:1006dc00878f5a00f8ff3e000460010003003700ca
:1006ec0056003700e5003700230137001e02780062
:1006fc00e00f52000b003a0014002000040f7800a9
:10070c00802b2800be0307008040eb0010c0b30014
:10071c009e0307000002eb00340798000002eb0078
:10072c004407980004408000e10f520042003a0058
:10073c007601070000427800045798000002eb0095
:10074c00044088000e529000044078008203070099
:10075c003e0290000402e800340798000e5290000c
:10076c0076034700de02900085024300844a78003d
:10077c005e0290000402e800540798008e5290002c
:10078c00a4c2b30084cf520016003a004e0290006f
:10079c000402e800440798004e029000e20f520059
:1007ac0006003a003e029000e20f520003003a00ad
:1007bc0014002000144088000a0037004e029000fc
:1007cc00e20f5200070032003e029000e10f52008f
:1007dc000400360014002000240798003400200088
:1007ec00144088008e52900034c2b30084cf520063
:1007fc0004003a0014002000240798003400200064
:10080c00144088003e029000e40f52000a003a00a7
:10081c001fe1a80000000000350480000400210046
:10082c0004826200e00f5200fbff32001fe1a900be
:10083c002400200014408800fc0037001e029000a9
:10084c00e00f52000e003a0014002000140798002c
:10085c003a030700e02b2800690307008040eb00f7
:10086c0010c0b300490307000002eb0034079800e6
:10087c000002eb00440798000002eb0054079800bc
:10088c0004408000e10f52007b003a001f0107007a
:10089c0000427800045798000002eb0004408800e6
:1008ac000e529000044078002b0307003e0290008b
:1008bc000402e800340798005e029000e40f520036
:1008cc00080032000e52900076034700de029000c2
:1008dc0085024300844a78005e0290000402e8001e
:1008ec00540798003e029000e40f520010003e00a6
:1008fc008e529000a4c2b30084cf520004003a0080
:10090c003400200024079800340020001440880094
:10091c008e52900034c2b30084cf520004003a00cf
:10092c003400200024079800340020001440880074
:10093c003e029000e50f52004f003a008e5290009c
:10094c0034c2b30084cf520043003a001fe1a80028
:10095c0000000000350480000400210004826200c5
:10096c00e00f5200fbff32001fe1a9006e02900065
:10097c00e10f52000d003a007b024700f6024700df
:10098c008500780004007800f0fe07006e029000ed
:10099c000402e80064079800440020002407980033
:1009ac003400200014408800260037006e029000ae
:1009bc00e20f52000a003a00040220000e0242002c
:1009cc00f60247008500780004007800dffe07007f
:1009dc006e0290000402e8006407980019003700ca
:1009ec006e029000e30f52000a003a0054022000fd
:1009fc000e024200f60247008500780004007800e1
:100a0c00d2fe07006e0290000402e8006407980012
:100a1c000c0037006e029000e40f520009003a00ff
:100a2c00a40220000e024200f60247008500780066
:100a3c0004007800c5fe07006e0290000402e80076
:100a4c00640798004400200024079800340020001c
:100a5c0014408800080037008e52900034c2b30056
:100a6c0084cf520004003200340020002407980088
:100a7c0034002000144088006c003700f10247005d
:100a8c00760247008500780004007800a8fe070075
:100a9c0000027800e00f520003003a00240020000e
:100aac002407980031003700fb024700760247000c
:100abc0085007800040078009dfe07000002780095
:100acc00e00f520003003a00240020002407980095
:100adc0026003700050220008e8242007602470075
:100aec00850078000400780091fe07000002780071
:100afc00e00f520003003a00240020002407980065
:100b0c001a003700550220008e8242007602470000
:100b1c00850078000400780085fe0700000278004c
:100b2c00e00f520003003a00240020002407980034
:100b3c000e003700a50220008e824200760247008c
:100b4c00850078000400780079fe07000002780028
:100b5c00e00f520003003a00240020002407980004
:100b6c0002003700140020002407980034002000f5
:100b7c00144088002d0037000002eb00040f7800b1
:100b8c000002eb00140798006c0207002e02900084
:100b9c00e10f520002003a00702c28009802070066
:100bac002e029000e20f520002003a00b02c2800f6
:100bbc00930207002e029000e30f520002003a004d
:100bcc00002d28008e0207002e029000e40f520028
:100bdc0002003a00802d2800890207001fe1a800be
:100bec000000000035048000040021000482620033
:100bfc00e00f5200fbff32001fe1a9000002eb00e6
:100c0c00044088000002eb00440798000002eb004f
:100c1c00340798000002eb005407980047020700c5
:100c2c000002eb001440880000000000a3fe370017
:100c3c00801f7800841f78003400f800000020002a
:100c4c00a00188000000fa008780a9000002eb00d8
:100c5c00a40888000002eb00c40888000080fa0099
:100c6c003400f9004f0278004f0078000040060075
:100c7c00801f7800841f78003400f80000002000ea
:100c8c00a00188000000fa008660a9001400200072
:100c9c00044088000080fa003400f9004f0278000c
:100cac004f007800004006000000fa00c002a800c7
:100cbc00c022a800c842a8002c03a8002c23a8001e
:100ccc002c83a8006040a8006060a80060c0a80049
:100cdc006840a8006860a80068c0a800c9e2a90024
:100cec00c9c2a900c9a2a900c982a900cfe2a80063
:100cfc00cfc2a800cfa2a800cf82a8008660a9000e
:100d0c009660a8000080fa00000006000400fa00bb
:100d1c0000c2eb00044f78000002eb0014079800af
:100d2c00010037000000000034408000cfa2de003c
:100d3c007600200007002000860f5200878f5a0093
:100d4c00f8ff3e0004600100070037005100370037
:100d5c009f003700ed0037003b0137004a01370098
:100d6c0050013700560137006516800004002f0033
:100d7c000502720064168800f4ff2700140798001f
:100d8c009e02900064168000048262006416880043
:100d9c00009f2400520107001416800061026200bb
:100dac00e00f52000c003a00141680006202620040
:100dbc00e00f5200080032005416800064026200fa
:100dcc00e00f52000400320014c3b300044f78004b
:100ddc005400200034408800141680006102620028
:100dec00e00f52000c003200141680006202620008
:100dfc00e00f520008003a005416800064026200b2
:100e0c00e00f52000400320024c3b300044f7800fa
:100e1c0064002000344088001416800061026200d7
:100e2c00e00f52000c0032001416800062026200c7
:100e3c00e00f520008003200541680006402620079
:100e4c00e00f520004003a0034c3b300044f7800a2
:100e5c007400200034408800141680006102620087
:100e6c00e00f52000a003200141680006202620089
:100e7c00e00f52000600320054168000640262003b
:100e8c00e00f5200020032001400200034408800b1
:100e9c00120137001e0290000482d10084027800f7
:100eac0004002800050272001407980065168000e3
:100ebc0004002f0005027200641688009e02900048
:100ecc00641680000482620064168800009f24006f
:100edc00030107001416800061026200e00f52004b
:100eec000c003a001416800062026200e00f5200ff
:100efc00080032005416800064026200e00f5200b9
:100f0c000400320044c3b300044f780054002000a6
:100f1c00344088001416800061026200e00f520019
:100f2c000c0032001416800062026200e00f5200c6
:100f3c0008003a005416800064026200e00f520070
:100f4c000400320054c3b300044f78006400200046
:100f5c00344088001416800061026200e00f5200d9
:100f6c000c0032001416800062026200e00f520086
:100f7c00080032005416800064026200e00f520038
:100f8c0004003a0064c3b300044f780074002000de
:100f9c00344088001416800061026200e00f520099
:100fac000a0032001416800062026200e00f520048
:100fbc00060032005416800064026200e00f5200fa
:100fcc00020032002400200034408800c3003700a7
:100fdc001e0290000482d1008402780004002800d4
:100fec0005027200140798006516800004002f009b
:100ffc0005027200641688009e0290006416800040
:10100c000482620064168800009f2400b40007006c
:10101c001416800061026200e00f52000c003a00ce
:10102c001416800062026200e00f520008003200c9
:10103c005416800064026200e00f5200040032007b
:10104c0074c3b300044f780054002000344088006f
:10105c001416800061026200e00f52000c00320096
:10106c001416800062026200e00f520008003a0081
:10107c005416800064026200e00f5200040032003b
:10108c0084c3b300044f780064002000344088000f
:10109c001416800061026200e00f52000c00320056
:1010ac001416800062026200e00f52000800320049
:1010bc005416800064026200e00f520004003a00f3
:1010cc0094c3b300044f78007400200034408800af
:1010dc001416800061026200e00f52000a00320018
:1010ec001416800062026200e00f5200060032000b
:1010fc005416800064026200e00f520002003200bd
:10110c003400200034408800740037001e02900028
:10111c000482d100840278000400280005027200c9
:10112c00140798006516800004002f000502720059
:10113c00641688009e02900064168000048262008f
:10114c0064168800009f24006500070014168000b8
:10115c0061026200e00f52000c003a00141680008d
:10116c0062026200e00f5200080032005416800048
:10117c0064026200e00f520004003200a4c2b3000b
:10118c00044f78005400200034408800141680006e
:10119c0061026200e00f52000c0032001416800055
:1011ac0062026200e00f520008003a005416800000
:1011bc0064026200e00f52000400320004c3b3006a
:1011cc00044f78006400200034408800141680001e
:1011dc0061026200e00f52000c0032001416800015
:1011ec0062026200e00f52000800320054168000c8
:1011fc0064026200e00f520004003a0034c2b300f3
:10120c00044f7800740020003440880014168000cd
:10121c0061026200e00f52000a00320014168000d6
:10122c0062026200e00f5200060032005416800089
:10123c0064026200e00f5200020032004400200001
:10124c0034408800250037006516800004002f000c
:10125c0005027200641688006516800004002f00d9
:10126c0004826a0064168800009f24001c0007009a
:10127c000002eb00344088001e42780004407800e5
:10128c000080fa0000000600141680006102620063
:10129c00e00f52000200320044002000344088006d
:1012ac000e0037001416800062026200e00f52003c
:1012bc000200320044002000344088000700370050
:1012cc005416800064026200e00f520002003200eb
:1012dc0044002000344088000000000092fe3700db
:1012ec000200fa00000f78000002eb0034088800be
:1012fc001e027800040242006408880084e0a90001
:10130c0004012800840888000000000025048000e7
:10131c000408200004826200e00f5200fbff320040
:10132c0011e1a9000080fa00000006000400fa0098
:10133c00004f7800110798009e42780061c262004d
:10134c000482fb00610262004722dd006616800009
:10135c00f5f72f0085026300050272006416880001
:10136c001e009000deff0700ccc2a8001e009000fb
:10137c00dbff0700ccc2a9001e009000d8ff0700bd
:10138c00cce2a9000080fa00000006000c00fa0074
:10139c00604798004107980052079800f4ff20001e
:1013ac00040f78006e4290008482fb00040f200032
:1013bc0004826200140798006e4290000482fb00c5
:1013cc006f026200240798001e0290004822dd0084
:1013dc00140798002e0290004c22dd002407980080
:1013ec00f4ff20001e0f62001e0290001e0f720000
:1013fc001e027800641688004e02900004427800a9
:10140c00de00900004407800c8ff0700f4ff2000c5
:10141c001e0f62002e0290001e0f72001e0278003a
:10142c00641688004e02900004427800de009000a2
:10143c0004407800bdff070065168000f4ff200013
:10144c0004826200641688000080fa000000060026
:10145c000000fa00c9e2a900c9c2a900c9a2a900ea
:10146c00c982a900c8e2a900c8c2a90065168000fb
:10147c00f4ff20000482620064168800cce2a9000c
:10148c00ccc2a90080a9230095ff07006516800037
:10149c00f4ff200084826200040023000502720025
:1014ac0064168800410021000040eb009fff0700fc
:1014bc0065168000f4ff2000848262000400230083
:1014cc000502720064168800410620000040eb0003
:1014dc0096ff0700420620008000eb0020c3b300fb
:1014ec00aaff0700820220008000eb0080c2b3003c
:1014fc00a6ff0700820220008000eb0080c0b30032
:10150c00a2ff0700c25d20008000eb0010c0b300fa
:10151c009eff0700820220008000eb0060c0b30039
:10152c009aff0700820220008000eb00c0c0b300cd
:10153c0096ff07000080fa00000006000000fa0089
:10154c00426a20008000eb0010c0b3008fff070040
:10155c000080fa00000006000200fa00004f78003c
:10156c001e427800e20220001100200004407800a6
:10157c0086ff070065168000f4ff200004826200dd
:10158c00641688000080fa00000006000400fa00cf
:10159c0020479800314798000002eb00040f7800b8
:1015ac002e429000e04f520003003a000002eb0084
:1015bc00040f7800050037002e429000e14f5200d6
:1015cc0002003a0004042000040f78003e42900010
:1015dc000482fb001e0f4200040820001e0f420074
:1015ec001e02780004427800820220008000eb008a
:1015fc000440780065ff07000080fa000000060038
:10160c000200fa00000f7800050037001e02780077
:10161c001442780004407800cfff07001e0fe8004a
:10162c001e02780014427800e04f5200f7ff3a0097
:08163c000080fa000000060026
:020000040000fa
:10164400000800000400000000000000040800007e
:101654000200000002000000ffff00000608000076
:0c16640002000000000000000000000078
:020000040000fa
:020000040001f9
:0457f800ad7b000085
:020000040000fa
:020000040001f9
:0457fc003f3f00002b
:00000001FF
